:020000040800F2
:10000000880E0020A1010008411B0008C319000848
:100010003D1B0008B1160008A122000800000000E6
:10002000000000000000000000000000A51F000804
:100030005117000800000000E11E00089120000890
:10004000BB010008BB010008BB010008BB010008A0
:10005000BB010008BB010008BB010008BB01000890
:10006000BB010008BB010008BB010008BB01000880
:10007000BB010008BB010008BB010008BB01000870
:10008000BB010008BB010008BB010008BB01000860
:10009000BB010008BB010008BB010008BB01000850
:1000A000BB010008BB010008BB010008BB01000840
:1000B000F5200008BB010008BB010008BB010008D7
:1000C000BB010008BB010008BB010008BB01000820
:1000D000BB010008BB010008BB010008BB01000810
:1000E00099170008BB010008BB01000800F002F8E6
:1000F00000F047F80AA090E8000C82448344AAF17B
:100100000107DA4501D100F03CF8AFF2090EBAE878
:100110000F0013F0010F18BFFB1A43F0010318473B
:10012000CC3F0000EC3F0000103A24BF78C878C1F3
:10013000FAD8520724BF30C830C144BF04680C60ED
:10014000704700000023002400250026103A28BF35
:1001500078C1FBD8520728BF30C148BF0B60704739
:10016000662903F07E84002070471FB500F00EFB67
:1001700004000020002102F0A5FBE0601FBD10B5C7
:1001800010BD00F007FC1146FFF7EFFF02F0E8F8A2
:1001900000F025FC03B4FFF7F2FF03BC00F068FC9D
:1001A0000948804709480047FEE7FEE7FEE7FEE70B
:1001B000FEE7FEE7FEE7FEE7FEE7FEE70448054947
:1001C000054A064B7047000095200008ED00000826
:1001D00088080020880E0020880A0020880A002055
:1001E0000FB41CB5074B06AA7B44694600900598DE
:1001F00000F0B3FA0020694600F0C2FA1CBC5DF8BA
:1002000014FB0000950500002DE9F0474FF0000AAF
:1002100089460446C0F820A02046E16888470028A7
:1002200076D0252806D0D4E901219047206A401CC9
:100230002062F1E7E168204600258847C4F81CA049
:1002400006460027C4F818A02A2E09D0304602F02E
:100250003DF838B304EB8708303EC8F8186019E061
:1002600059F8041B204604EB87029161E168884736
:10027000012F064618D1E069002820DA25F0200574
:100280001DE0D8F8180000EB800006EB4000303885
:10029000C8F818002046E1688847064602F016F8BC
:1002A0000028EED1012F0AD02E2E08D12046E16879
:1002B00088477F1C0646022F45F02005C4DBA06955
:1002C000002803DA404245F00105A061E80701D0AB
:1002D00025F01005B6B1A6F14100192802D8203644
:1002E00045F400654A463146204625604D46FFF7F5
:1002F00037FF58B1012806D0ED1D25F0070000F1A9
:10030000080989E704E005F1040985E730468AE732
:10031000206ABDE8F08770477047704710B500F05D
:1003200039FA006810BD10B5044600F033FA0460D5
:1003300010BD70472DE9FF4F0C461E464FF0FF37AA
:100340008BB0D2E90001DDF860800A908A46C1F3E3
:100350000A5505B93D46002108464FF00000BAF1A4
:10036000000F00F4400005DA00EB80004FF440017C
:1003700001EA50004FEA9059B9F1010F00DDB9468A
:100380000A9850EA4A000ED044F61050A5F2FF3504
:1003900045432F14B8F1000F1ED07542291E1EDDF3
:1003A000C9F100021CE0B8F1010F4FF0000001D0CC
:1003B000302103E0F24305E02154401CB042FBDB56
:1003C00030460022002121540B99C1F80880C1E970
:1003D00000200FB0BDE8F08FBD1B6D1CDEE74A4664
:1003E00000DA694206A800F05FFA06AB93E807005E
:1003F00003AB83E8070050460A9900F040FB8DE804
:100400000700A0F500501F3800900398002D0ADD6A
:1004100042F21F014A460844002303A9039068469C
:1004200000F0A9FD09E0A0F500504A461F3800235E
:1004300003A90390684600F0B3FD8DE807000004AF
:10044000000C03D04FF0FF30410800E01046B8F137
:10045000000F03D00022009215461EE0751E05D441
:1004600000F09CF9303262556D1EF9D5B346012279
:10047000084302D000227F1C04E02078302801D1FC
:1004800000227F1E002A099784D01DE0112D07DA73
:1004900000F084F9303262556D1C50EA0102F5D14A
:1004A000084302D00098C8B10EE00021681E05E0A4
:1004B000235C625C63542254401E491C8142F7DB7A
:1004C000AB46A81B401E0990002004F80B000B98B7
:1004D000099AC0F80880C0E9002B7AE711264FF08E
:1004E000000857E72DE9F04F88460446D21D22F058
:1004F000070191B0D1E90001CDE90A0101F0D2FE76
:1005000002460B98C00F01D02D2007E0206881071C
:1005100001D52B2002E0202101EAC000032A099026
:1005200001D0072A05DB03464146204600F07CF94E
:100530000BE12078800601D5E06900E00620B8F1E3
:10054000650F814606D0B8F1660F18D0B8F1670F75
:1005500070D131E00020B9F1110F009001DB1123BF
:1005600001E009F101030AAA01A90CA8FFF7E2FEC4
:10057000DDE90C70002609F10105834647E0012002
:100580004B4600904FF000470AAA01A90CA8FFF7BC
:10059000D1FEDDE90DB00C995D46002610B909F1D8
:1005A00001000D18B9EB050003D4C0F1FF3609F1C5
:1005B0000105A5EB09002BE0B9F1010F01DA4FF0BD
:1005C00001090020B9F1110F0090484601DD112307
:1005D00000E003460AAA01A90CA8FFF7ABFEDDE97B
:1005E0000C704D4600268346207800070AD4AB45A0
:1005F00000DA5D4601A8012D04DD411911F8011C46
:10060000302907D04F4502DA17F1040F04DA012030
:1006100082460FE06D1EEEE7002F02DCED1B3E442C
:1006200003E0781CA84200DD7D1CB81B00F1010A24
:100630004FF000472078000703D4AA4501DB4FF0B4
:10064000FF3A0021B7F1004F0DF143088DF8431038
:1006500024D002202B23002F01DA7F422D230A21F0
:10066000021EA0F1010000DC5FB197FBF1FC97FBDB
:10067000F1F201FB1C7C17460CF1300C08F801CD9F
:10068000EEE7A8F1010003702188090501D5452195
:1006900000E06521A0F1010800F8011C09980FA9EC
:1006A000A1EB0807FF1D00B10120411901EBEA7021
:1006B000A1693844081A401EA0612078C00602D4FF
:1006C0002046AFF30080099828B1D4E90121904772
:1006D000206A401C20622078C00622D52046AFF355
:1006E00000801EE0002E04DBB34502DD01A8805D22
:1006F00000E03020D4E901219047206A401C2062AC
:10070000761CAAF101005FEA000A0AD100F03EF867
:10071000C0680168405CD4E901219047206A401C10
:100720002062281EA5F10105DCDC07E0D4E90121E7
:1007300018F8010B9047206A401C2062381EA7F170
:100740000107F3DC2046AFF30080032011B041E63F
:1007500001694A1C02610878704700B58FB0CDE985
:1007600001310021059105497944CDE90310114675
:100770006846FFF749FD0FB000BD0000E5FFFFFF31
:100780000A6802F8010B0A607047000000487047D1
:1007900048080020004870472808002030B5B0F114
:1007A0000A024FEA900E71F100034EEA817EB0EB2F
:1007B0000E0061EB91014FEA101E4EEA017E10EB34
:1007C0000E0041EB11114FEA102E4EEA016E10EBB4
:1007D0000E0041EB11214FEA104E4EEA014E10EB94
:1007E0000E0041EB1141401841F100014FEAD000E9
:1007F00040EA41704FEAD10110EB80054FEA8104D5
:1008000044EA907444EB01046D1944EB0404521B58
:10081000A3414FF0000348BF0A3200D530BD401C51
:1008200041F1000130BD00002DE9F0411F460446B2
:1008300003260168072A01F4006004DB08B116A54D
:1008400005E016A503E008B115A500E015A521F007
:1008500010002060A069C01EA0610FB1401EA06101
:100860002046AFF300804FB1D4E9012138469047CC
:10087000206A401C2062C01C206206E0206AFAE761
:10088000D4E9012115F8010B9047761EF8D22046D5
:10089000AFF30080BDE8F0814E414E006E616E0006
:1008A000494E4600696E66002DE9F04781461646BE
:1008B0008AB0354878440DC88DE80D003248784438
:1008C000801C03AC0DC884E80D0041F69B30084441
:1008D000372190FBF1F290FBF1F5A5F1800501FBCA
:1008E00012041B3C02D56442012000E00020DFF826
:1008F00098A080460027FA44AAF1BE0A0EE0E0075D
:100900000AD03246684607EB470101230AEB810112
:1009100000F046FB8DE8070064107F1C002CEED130
:10092000194F7F44AE3F19E0E80715D007EB0410DC
:100930000DF1180A90E80E008AE80E00C068F04237
:1009400001D1981908903246012306A903A800F0A6
:1009500027FB03AB83E807006D10641C002DE3D177
:100960004FF0010332466946B8F1000F03A802D0E8
:1009700000F001FB01E000F013FBC9E90001C9F838
:1009800008200AB0BDE8F0871C3800000048704716
:10099000280800207546FFF7F9FFAE4605006946B6
:1009A000534620F00700854618B020B5FFF706FC37
:1009B000BDE820404FF000064FF000074FF0000860
:1009C0004FF0000B21F00701AC46ACE8C009ACE8E1
:1009D000C009ACE8C009ACE8C0098D46704710B545
:1009E0000446AFF300802046BDE81040FFF7D2BBBD
:1009F0004FF0013C50F8042B51F8043B9A4221D1AE
:100A0000A2EB0C03934313EACC1317D150F8042B39
:100A100051F8043B9A4215D1A2EB0C03934313EA1D
:100A2000CC130BD150F8042B51F8043B9A4209D156
:100A3000A2EB0C03934313EACC13DBD04FF000007E
:100A4000704700BFD01A01BAB1FA81F101F0180164
:100A500022FA01F0CB40C1F12001DBB2C0B2C01AD2
:100A60002CFA01F3D11A914311EAC311E6D1704770
:100A700001491820ABBEFEE72600020070475FEA7E
:100A8000400C08BF91F0000F4FEA8C234FEAC122BF
:100A900043EA51514FEA1C5018BF00F5F0404FEAAD
:100AA000300018BF41F000415FEA6C5C00F0298023
:100AB000BCF1FF3F08BF40F080407047130C06BFF9
:100AC00012044FF0100C4FF0000C130E04BF120272
:100AD0000CF1080C130F04BF12010CF1040C930F5E
:100AE00004BF92000CF1020CD30F04BF52000CF1B2
:100AF000010C11464FF00002A0F11F00A0EB0C000A
:100B0000704711F0004F08BF704731F000413FF4CB
:100B1000D5AF0B0C06BF09044FF0100C4FF0000CC2
:100B20000B0E04BF09020CF1080C0B0F04BF0901E6
:100B30000CF1040C8B0F04BF89000CF1020CCB0FDD
:100B400004BF49000CF1010CCCF12003A0EB0C0018
:100B500022FA03F302FA0CF241EA030100F1010068
:100B6000704720F07F4C80EA030023F07F47ACEB16
:100B7000070303F57C5300F0004003F1FF032DE968
:100B800080494FEA154B09B44FEA144325EA0B4E4E
:100B900024EA03480FF2042606EB132749083E789F
:100BA0005FEA320203FB0667C7F5000707FB06F69C
:100BB0004FEA54374FEAD64606F1020607FB066CA9
:100BC000CCF1005C4FEA1C472CEA074C07FB06F40B
:100BD0000CFB06F504EB15464FEA961634BF0020D1
:100BE0004FF000404FEAD13706FB07FC4FEA1C4CA0
:100BF0000CFB0BF7D21B03FB0CF761EB07010CFBA3
:100C00000EF7B0EB074072EB17420CFB08F734BF4E
:100C1000A2EB0742B2EB074261EB17414FEA0C44EB
:100C20004FEA910706FB07FC4FEA1C4C0CFB0BF745
:100C3000B0EBC74072EB573203FB0CF734BFA2EBAB
:100C4000C742B2EBC74261EB57310CFB0EF7B0EB7A
:100C5000C70072EB57720CFB08F734BFA2EBC70258
:100C6000B2EBC70261EB5771039F4FEA816141EA22
:100C7000921104EBCC044FEAD1374FEA826206FBB3
:100C800007FC42EA90124FEA80604FEA1C4C0CFBD2
:100C90000BF7D21B03FB0CF761EB07010CFB0EF704
:100CA000B0EB074072EB17420CFB08F734BFA2EB26
:100CB0000742B2EB074261EB17414FEA8C554FEA0E
:100CC000910704EB9C2406FB07FC4FEA1C4C0CFB31
:100CD0000BF7B0EBC74072EB573203FB0CF734BF96
:100CE000A2EBC742B2EBC74261EB57310CFB0EF7E8
:100CF000B0EBC70072EB57720CFB08F734BFA2EBE6
:100D0000C702B2EBC70261EB577115EB4C254FEAF6
:100D1000816141EA92114FEA82624FEAD13742EA99
:100D2000901206FB07FC44F100044FEA80604FEA92
:100D30001C4C0CFB0BF7D21B03FB0CF761EB070100
:100D40000CFB0EF7B0EB074072EB17420CFB08F7F9
:100D500034BFA2EB0742B2EB074261EB174115EB40
:100D60001C154FEA813141EA92414FEA823242EA50
:100D700090424FEA80304FEA0C7644F1000448EA92
:100D800003434EEA0B484FF0000EB2EB080C71EB38
:100D9000030724BF624639464EEB0E0E4FF0000BA0
:100DA0000018524149414BEB0B0BB2EB080C71EBB5
:100DB00003077BF1000B24BF624639464EEB0E0E53
:100DC0004FF0000B0018524149414BEB0B0BB2EBBB
:100DD000080C71EB03077BF1000B24BF6246394618
:100DE0004EEB0E0E51EA020718BF46F0010616EB55
:100DF0000E7655F1000254F1000103D5BDE88901DA
:100E0000BDE80088BDE88901BDE80048B619524137
:100E100041EB0101A3F10103704780807F7E7D7C5F
:100E20007B7A7978777676757473727171706F6E7C
:100E30006E6D6C6C6B6A6A69686867666665646427
:100E4000636362616160605F5F5E5E5D5D5C5C5BB1
:100E50005B5A5A5959585857575656555555545420
:100E6000535352525251515050504F4F4F4E4E4D7E
:100E70004D4D4C4C4C4B4B4B4A4A4A4949494848CA
:100E8000484747474746464645454544444444430A
:100E900043434342424242414141002B9C4630D4AD
:100EA00077002BD01CB54FEA370703B44FF0100082
:100EB0004FF01001BAF1000F06D0BCF1000FDCBFFB
:100EC00040F0080040F008014FF000000FBCBDE802
:100ED00010400BF1010BBBF1010F08BF5FEA1707D0
:100EE00022BF12F1010211F101014FF0004143F163
:100EF000000300F0004043EA00007047F9D35708B0
:100F0000D0E746EA064613F1400F4FEA16461FDDCA
:100F100013F1200FDFBF16430A46002120335B4246
:100F2000BED0C3F1200746EA064602FA07F74FEAA9
:100F3000164646EA0706C3F1200722FA03F201FA31
:100F400007F721FA03F14FF0000342EA0702A7E78F
:100F500046EA020646EA06464FEA164646EA010611
:100F6000BCBF46EA0646360C4FF000034FF00002C5
:100F70004FF0000194E72DE9804C9A46934670B4F7
:100F800091E8380007C831EA400C48BF34EA430C06
:100F900003D5FFF7E6FDFFF780FFF0BCBDE8008C4E
:100FA0002DE9804C9A46934670B491E8380007C802
:100FB00010F0804F08BF13F0804F03D100F005F808
:100FC000FFF76BFFF0BCBDE8008C20F07F4780EAA4
:100FD000030023F07F4C07EB0C03A3F57C5300F0D8
:100FE0000040A3F1FE0392F0000F00F0B38095F0F3
:100FF000000F00F077802DE901494FEA11404FEAD8
:10100000144621EA004800FB06FC24EA064708FBD8
:1010100006F607FB08F800FB07F718EB06484CEB51
:10102000164C4FEA124B18EB07484FEA15464CEBAB
:10103000174022EA0B4E0BFB06FC25EA06470EFB87
:1010400006F607FB0EFE0BFB07F71EEB064E4CEBFE
:10105000164C4FF000061EEB074E4CEB174B18EBEF
:101060000B0840F1000018EB0E0B58EB000840F1A4
:1010700000008F1A4FF000013CBFC943661B14BF2C
:10108000B5EB040C00213CBFC943F61B4FEA1744E3
:101090004EEA8E0E27EA04454FEA1C4704FB07621E
:1010A0002CEA074C05FB07F70CFB05F604FB0CFCD0
:1010B00016EB074642EB174216EB0C4642EB1C427E
:1010C0001BEB060658EB0202414146EA9E0601D59B
:1010D000BDE80189B619524141EB0101A3F10103B9
:1010E000BDE801894FEA14454FEA114724EA054655
:1010F00021EA074C05FB07F406FB07F70CFB06F19A
:1011000005FB0CFC11EB074144EB17444FEA124777
:1011100011EB0C4144EB1C4422EA074C05FB07F29F
:1011200006FB07F70CFB06F605FB0CFC16EB074667
:1011300042EB174216EB0C4642EB1C456A1854F181
:10114000000148BF7047B619524141EB0101A3F1BC
:101150000103704795F0000F37D04FEA11424FEA74
:10116000144721EA024624EA074C02FB07F106FB7A
:1011700007F70CFB06F402FB0CFC14EB074441EBF5
:1011800017414FEA154714EB0C4441EB1C4125EA8B
:10119000074C02FB07F506FB07F70CFB06F602FB04
:1011A0000CFC16EB074645EB174516EB0C4645EBDA
:1011B0001C42121951F1000148BF7047B619524143
:1011C00041EB0101A3F1010370474FEA14454FEAD7
:1011D000114724EA054621EA074C05FB07F106FB07
:1011E00007F70CFB06F24FF0000605FB0CFC12EBB8
:1011F000074241EB174112EB0C4251EB1C4148BF37
:101200007047921841EB0101A3F101037047000000
:101210002DE9FC5F00205D4908605D4800780028EA
:1012200054D04FF0000A4DE04FF0000B2AE059492E
:10123000888801F09BFD584A584BCDE9000101F028
:10124000E5FD80460022564B01F038FC0646554A23
:10125000554B02F001F8044601F04AFB534908607F
:1012600008460168006802F089FA0446504801689F
:10127000204602F007F94E490860022000F069FAA2
:101280000BF1010BBBF10F0FD1DB4A494848006855
:1012900002F066F9804602F0C9F8064601F0ECFA61
:1012A000044601F025FB44490860002040490860DD
:1012B000414801683548006802F0E4F833490860A5
:1012C0000AF1010ABAF10A0FAEDB53E04FF0000A4F
:1012D0004DE04FF0000B2AE02E49888801F046FDD2
:1012E0008046364A364B01F091FD064600222C4BD3
:1012F00001F0E4FB0446334A334B01F0ADFFCDE986
:10130000000101F0F5FA2949086008460168006803
:1013100002F034FA044626480168204602F0B2F88A
:1013200023490860022000F014FA0BF1010BBBF115
:101330000F0FD1DB1F491E48006802F011F98046EB
:1013400002F074F8064601F097FA044601F0D0FA6C
:1013500019490860002016490860174801680B48C1
:10136000006802F08FF8094908600AF1010ABAF131
:101370000A0FAEDB15490548006802F0F1F8034991
:10138000086008460068BDE8FC9F000008000020D7
:101390000100002028000020B1E1E995B20CF53FE2
:1013A00000FEAF407D3F355EBA49E03F10000020AF
:1013B0001400002000007041180000201D5A643BFA
:1013C000DF4F2A405C8FC2F5285C144000002041AA
:1013D00021B1826842F00102826003E0826822F05B
:1013E00001028260704721B1826842F4807282609B
:1013F00003E0826822F48072826070470146002018
:101400008A6802F004020AB1012000E0002070475F
:10141000014600208A6802F008020AB1012000E0BB
:101420000020704730B502460020002350680F4C62
:1014300020400D790C6844EA0524204350609068F0
:101440000B4C2040D1E902542C434D7944EA450429
:1014500020439060D06A20F470000C7C641EE4B2DB
:10146000234340EA0350D06230BD0000FFFEF0FF8E
:10147000FDF7F1FFF0B504460D4600200021092DCF
:1014800011DDE068A5F10A0606EB4607072606FA15
:1014900007F18843A5F10A0606EB460603FA06F1B2
:1014A0000843E0600CE0206905EB4507072606FAD3
:1014B00007F1884305EB450603FA06F1084320616E
:1014C000072A0FDA606B561E06EB86071F2606FA00
:1014D00007F18843561E06EB860605FA06F1084317
:1014E000606322E00D2A0FDA206BD61F06EB860719
:1014F0001F2606FA07F18843D61F06EB860605FA73
:1015000006F10843206310E0E06AA2F10D0606EB45
:1015100086071F2606FA07F18843A2F10D0606EB9F
:10152000860605FA06F10843E062F0BD816841F0E5
:1015300008018160704721B1826842F4A002826094
:1015400003E0826822F4A00282607047816841F063
:10155000040181607047000000B591B0012148028C
:1015600000F0ECFC0121042000F0E8FC012108203F
:1015700000F0E4FC0121084600F0C0FC4FF40040FC
:1015800000F0B0FC00208DF84300B020ADF8400022
:1015900003208DF8420010A9404800F079F903209B
:1015A000ADF8400010A93E4800F072F90023012276
:1015B00004213C48FFF75EFF002302220521394841
:1015C000FFF758FF0023032207213648FFF752FF99
:1015D0000023042208213348FFF74CFF0023052293
:1015E00009213048FFF746FF0023062211212D482C
:1015F000FFF740FF00200B900E904FF460200D90FD
:1016000001208DF831008DF8300006208DF83C0067
:101610000BA92448FFF706FF22484C3000908015A4
:10162000069000200490204801904FF480600790BD
:101630008020059000200290062003902020089032
:1016400000200A904FF4805009906946174800F036
:1016500061F80121154800F051F801211148FFF708
:10166000C2FE01210F48FFF7B3FE0E48FFF75EFFF1
:1016700000BF0C48FFF7CCFE0128FAD00948FFF75D
:1016800065FF00BF0748FFF7B9FE0128FAD0012126
:101690000448FFF750FF11B000BD000000080140F2
:1016A000000C0140002401402800002008000240F6
:1016B00000BFFEE770B5054600200E490860002413
:1016C0000BE0284600F00AFE06460A48016830464C
:1016D00001F0D8FE07490860641CC82CF1DB0649FC
:1016E0000448006801F03CFF0249086008460068B1
:1016F00070BD0000080000200000484321B10268CE
:1017000042F00102026004E002684FF6FE731A40E4
:101710000260704710B50022026847F6F0739A43E2
:101720000C6A8B6823430C6923434C6923438C69FF
:101730002343CC6923434C6A23438C6A23431A43D3
:101740000260CB6843600B6883604B68C36010BD68
:10175000704700B5034603E04FF47A7000F005F8D7
:10176000181EA3F10103F7D100BD00EBC001C900B1
:101770004FF0E0225161002191610521116100BF0C
:101780004FF0E021096901F480310029F8D00421EB
:101790004FF0E0221161704710B500200349088026
:1017A0004FF4406000F004F810BD00002400002059
:1017B00001490860704700001404014000212349DA
:1017C0008279002A3AD00A46126803689A430B4687
:1017D0001A600A1D126803689A430B1D1A60027989
:1017E00011440A6803681A430A60184A08321268EA
:1017F00003689A43154B08331A601A1D1268036870
:101800009A43124B0C331A604279102A0ED11A1FD8
:10181000126803681A430D4B08331A601A1D1268C8
:1018200003681A43094B0C331A600DE007494279EB
:1018300011440A6803681A430A6005E002791144FA
:101840000A6803689A430A60704700000004014078
:1018500030B500228B071C0F0F2303FA04F20B4B49
:101860008C1053F824309343084C8D1044F82530E5
:1018700023468C1053F824308C07240F00FA04F40C
:101880002343024C8D1044F8253030BD0800014040
:101890002DE9F04102460025002600200023002407
:1018A000002791F803C00CF00F0591F803C00CF06D
:1018B000100CBCF1000F03D091F802C04CEA0505F2
:1018C00091F800C0BCF1000F31D0146800202BE06B
:1018D0004FF0010C0CFA00F3B1F800C00CEA03065B
:1018E0009E4220D183004FF00F0C0CFA03F7BC434B
:1018F00005FA03FC4CEA040491F803C0BCF1280F7C
:1019000006D14FF0010C0CFA00FCC2F814C00AE03A
:1019100091F803C0BCF1480F05D14FF0010C0CFA4F
:1019200000FCC2F810C0401C0828D1D31460B1F8E4
:1019300000C0BCF1FF0F34DD546800202EE000F140
:10194000080C4FF0010808FA0CF3B1F800C00CEADB
:1019500003069E4221D183004FF00F0C0CFA03F7CF
:10196000BC4305FA03FC4CEA040491F803C0BCF143
:10197000280F05D100F1080C08FA0CF8C2F8148001
:1019800091F803C0BCF1480F07D100F1080C4FF0EB
:10199000010808FA0CF8C2F81080401C0828CED3C1
:1019A0005460BDE8F0810246002093680B400BB103
:1019B000012000E0002070470AB1016100E04161B0
:1019C000704700BFFEE700004FF07E5005490860F9
:1019D000002048608860C860034808610348486187
:1019E0007047000034000020A69B443B8FC2F53CAA
:1019F00010B54FF480610848FFF7D5FF08B9012002
:101A000010BD4FF400610448FFF7CDFF08B9022074
:101A1000F6E70020F4E70000000C01401FB50121AB
:101A2000082000F08BFA0121084600F087FA4820D0
:101A30008DF80F004FF44060ADF80C0003208DF8D6
:101A40000E0003A91648FFF723FF0A210120FFF724
:101A5000FFFE0B210120FFF7FBFE4FF440600190D9
:101A600001208DF80A0000208DF808000C208DF868
:101A7000090001A8FFF7A2FE4FF4A06000F09AF859
:101A800028208DF8000001208DF8030002208DF839
:101A9000010001208DF80200684600F053F81FBDD8
:101AA000000C014010B51F480078401C1D4908700B
:101AB00008460078142834DB002008701A480078A3
:101AC0001A490870FFF794FF174908700846007814
:101AD000A8B916480078012811D11548007870B9C6
:101AE00014480078401C1349087008460078032108
:101AF00090FBF1F201FB12000E49087011E00A4858
:101B0000007870B90948007802280AD1084800789E
:101B100038B90948007808B9012000E000200649DA
:101B2000087010BD02000020030000200400002007
:101B300026000020000000200100002000BFFEE77A
:101B40007047000070B5002100230F22C47804B351
:101B5000154C246804F4E064C4F5E064210AC1F182
:101B60000403CA40447804FA03F184781440214302
:101B700009010E4C0678A155047804F01F050124D4
:101B8000AC4005786D11AD0005F1E025C5F80041C8
:101B900009E0047804F01F050124AC40044D0678E8
:101BA000761145F8264070BD0CED00E000E400E041
:101BB00080E100E002490143024A116070470000E1
:101BC0000000FA050CED00E070B500240EE00021E5
:101BD000204600F0E6F8002504E0002000F050F96F
:101BE000681CC5B2802DF8DB601CC4B2082CEEDB8B
:101BF00070BD000008B50121082000F09FF91420F5
:101C00008DF8030003208DF802004FF48070ADF8CA
:101C1000000069460A48FFF73BFE4FF40070ADF83C
:101C2000000069460648FFF733FE0122110204480E
:101C3000FFF7C2FE012251020148FFF7BDFE08BDB9
:101C4000000C014070B50546002415E080202041BD
:101C500000EA05024FF400710E48FFF7ADFE0122C5
:101C600011020C48FFF7A8FE00224FF480710948CA
:101C7000FFF7A2FE601CC4B2082CE7DB01221102B0
:101C80000448FFF799FE00224FF480710148FFF7E6
:101C900093FE70BD000C014010B5012251020A48AC
:101CA000FFF78AFE012211020748FFF785FE002296
:101CB0004FF400710448FFF77FFE00224FF480715B
:101CC0000148FFF779FE10BD000C014010B500225D
:101CD0004FF400710648FFF76FFE0122110204481D
:101CE000FFF76AFE012251020148FFF765FE10BDB1
:101CF000000C014070B5002406E0002500E06D1CDA
:101D0000B5F57A7FFBD3641CB4F57A7FF5D3FFF782
:101D100071FFAE2000F0A4F8D52000F0A1F88020DB
:101D200000F09EF8A82000F09BF83F2000F098F803
:101D3000D32000F095F8002000F092F8402000F049
:101D40008FF8A12000F08CF8C82000F089F8DA2084
:101D500000F086F8122000F083F8812000F080F86F
:101D6000CF2000F07DF8D92000F07AF8F12000F0C3
:101D700077F8DB2000F074F8302000F071F8A42030
:101D800000F06EF8A62000F06BF88D2000F068F8E7
:101D9000142000F065F8AF2000F062F8FFF714FFA0
:101DA00070BD70B505460C4645F0B00000F058F81F
:101DB000102141EA141000F053F804F00F0000F075
:101DC0004FF870BD2DE9F04105460E461746721ECC
:101DD000D206110E6A1E5206100EFFF7E2FF002413
:101DE00009E0A7F12001134A02EB0111085D00F0A0
:101DF00047F8601CC4B2082CF3DB721ED206110E29
:101E00006A1E012303EB4202D0B2FFF7CAFF00248F
:101E10000BE0A7F12001074A02EB011204F10801CF
:101E2000505C00F02DF8601CC4B2082CF1DBBDE85A
:101E3000F0810000663A00082DE9F04107460E46A1
:101E40001546002407E02A5D3019C1B23846FFF775
:101E5000B9FF601CC4B2285D0028F4D1BDE8F08150
:101E600010B50446FFF718FF7820FFF7EBFE0020BF
:101E7000FFF7E8FE2046FFF7E5FEFFF727FF10BD5E
:101E800010B50446FFF708FF7820FFF7DBFE40207F
:101E9000FFF7D8FE2046FFF7D5FEFFF717FF10BD6E
:101EA00010B5024600200C4B186820F003001043C8
:101EB00018600A4B1B6843F00403084C2360012997
:101EC00001D130BF00E020BF044B1B6823F00403A6
:101ED000024C236010BD00000070004010ED00E0D7
:101EE0007047000001460020034A506820F440403B
:101EF00008435060704700000010024029B1064AB4
:101F000052690243044B5A6104E0034A5269824316
:101F1000014B5A61704700000010024029B1064A87
:101F2000D2690243044BDA6104E0034AD269824376
:101F3000014BDA61704700000010024029B1064AE7
:101F400092690243044B9A6104E0034A9269824316
:101F5000014B9A61704700000010024070B50546C1
:101F600000200E49086000240BE0284600F0B6F976
:101F700006460A480168304601F084FA07490860BD
:101F8000641C642CF1DB06490448006801F0E8FA9F
:101F9000024908600846006870BD00000800002083
:101FA0000000C842704710B500F002F810BD0000F4
:101FB0000CB50020019000903348006840F4803058
:101FC0003149086000BF3048006800F400300090DC
:101FD0000198401C0190009818B90198B0F5A06FC5
:101FE000F1D12948006800F4003010B101200090C0
:101FF00001E0002000900098012843D123480068A8
:1020000040F01000214908600846006820F00300F5
:1020100008600846006840F0020008601A484068FE
:10202000194948600846406848600846406840F4DE
:10203000806048600846406820F47C10486008468C
:10204000406840F4E81048600846006840F080703E
:10205000086000BF0C48006800F000700028F9D04C
:102060000948406820F00300074948600846406876
:1020700040F00200486000BF0348406800F00C00D8
:102080000828F9D10CBD00000010024000200240D9
:102090007047000010B51348006840F00100114976
:1020A000086008464068104908400E4948600846E4
:1020B00000680E4908400B4908600846006820F493
:1020C000802008600846406820F4FE0048604FF415
:1020D0001F008860FFF767FF4FF000600449086049
:1020E00010BD0000001002400000FFF8FFFFF6FEE8
:1020F00008ED00E010B50121880700F023F8012861
:102100000AD106480088401C04490880FFF7CAFC31
:102110000121880700F007F810BD0000240000200E
:10212000CA4302827047CA430282704721B10288C3
:1021300042F00102028004E002884FF6FE731A406A
:102140000280704730B50246002000230024158A23
:1021500005EA0103958905EA010413B10CB10120D8
:1021600000E0002030BD1AB183890B43838102E077
:1021700083898B438381704701894FF6F872114040
:1021800001817047002202881D4B98420ED01D4BE2
:1021900098420BD0B0F1804F08D01B4B984205D02D
:1021A0001A4B984202D01A4B984204D14FF68F73C3
:1021B0001A404B881A43174B984207D0164B984247
:1021C00004D04FF6FF431A40CB881A4302808B8815
:1021D00083850B8803850A4B98420BD0094B9842A4
:1021E00008D00E4B984205D00D4B984202D00D4BB3
:1021F000984201D10B7A0386012383827047000045
:10220000002C014000340140000400400008004060
:10221000000C00400010004000140040004001404D
:1022200000440140004801401FB501210846FFF766
:1022300075FE4FF08040FFF79FFF0020ADF80A00C9
:10224000ADF8060040F2E730ADF808004720ADF8E1
:10225000040000208DF80C0001A94FF08040FFF72A
:1022600091FF01218807FFF75BFF012211469007CC
:10227000FFF779FF4FF4A060FFF79CFC1C208DF85E
:10228000000001208DF803008DF801008DF8020098
:102290006846FFF757FC01218807FFF747FF1FBD7E
:1022A00000BFFEE7490050EAC12018BF04204A0DD4
:1022B00018BF40F0010040F2FF72B2EB515F08BF5F
:1022C00040F00200012808BF0520704730380A2876
:1022D00001D201207047002070470000F0B5B3B074
:1022E00005460026002004E0298801AA22F81010E3
:1022F000401C6428F8DB00211CE0002015E001AA46
:1023000032F8103001AF421C37F8122093420BDD37
:1023100001AA32F8104001AB421C33F8122023F816
:102320001020421C23F81240401CC1F1630282427B
:10233000E5DC491C6329E0DB012004E001A931F858
:1023400010100E44401C6328F8DB304601F0CAF937
:102350000746024901F004F933B0F0BD0000C44261
:1023600008B501210807FFF7D9FDFFF7C3FCFFF708
:10237000F3F8FFF753FBFFF757FFFFF725FBFEA22C
:1023800005210220FFF758FD4FF4FA60FFF7E1F94D
:10239000FBA205210220FFF74FFD4FF4FA70FFF773
:1023A000D8F965E2F8A201210846FFF745FDF84893
:1023B0000078002853D1F7A201210220FFF73CFD4D
:1023C000F548007800284BD0F4A207210120FFF740
:1023D00033FDF448FFF76EF9009001F027F88046CE
:1023E0000022F14B00F06AFB82464FF06632EF4B61
:1023F00000F00CFD06460022ED4B00F05FFB0446AA
:1024000000F076FAEB4908600846006801F00EF823
:102410000446E94AE94B00F0F7FD03D80020E549FE
:1024200008600CE0E348006801F000F80446E44A64
:10243000E44B00F0E9FD02D8E348DE490860DD48DE
:10244000006800F0F3FF044622460B46DFA1E14896
:10245000FDF7C6FEDF4A01210320FFF7EDFC43E054
:10246000DDA207210120FFF7E7FCCE48801CFFF723
:1024700021F9824600F0DAFF06460022CA4B00F03E
:102480001DFB80464FF06632C84B00F0BFFC04468F
:1024900000F02EFAC74908600846006800F0C6FF41
:1024A0000446C74ACE4B00F0AFFD03D80020C14917
:1024B000086009E04FF08041BE48006801F02AFA48
:1024C00002D8C848BB490860BA48006800F0AEFFAF
:1024D000044622460B46C4A1BE48FDF781FEBD4A14
:1024E00001210320FFF7A8FCA948007801286AD140
:1024F000BFA201210220FFF79FFCFEF789FEAD4934
:102500000860A548007880B3A4A207210120FFF746
:1025100093FCA848006800F089FF0446A64AA74B30
:1025200000F072FD03D80020A24908600CE0A14829
:10253000006800F07BFF0446A14AA24B00F064FD56
:1025400002D8AC489B4908609A48006800F06EFFCA
:10255000044622460B46A4A19E48FDF741FE9D4A33
:1025600001210320FFF768FC2DE0FFE79AA2072175
:102570000120FFF761FC8F48006800F057FF044618
:102580008F4A974B00F040FD03D80020894908602E
:1025900009E04FF080418748006801F0BBF902D89C
:1025A0009548844908608348006800F03FFF04466E
:1025B00022460B4691A18748FDF712FE854A01216C
:1025C0000320FFF739FC72480078022853D18EA20D
:1025D0000121FFF731FC7048007800284CD08BA215
:1025E00007210120FFF728FC6E48801DFFF7B6FC8D
:1025F000009000F01BFF064600226B4B00F03AFDF6
:1026000004460D466748801DFFF7A8FC009000F0C7
:102610000DFF06467F4A804B00F0F8FB80462246BD
:102620002B4600F04BFA824600F062F961490860DF
:102630007A496048006801F06DF903D200205D49D5
:10264000086008E076495B48006801F063F902D849
:102650007448584908605748006800F0E7FE04468F
:1026600022460B4670A15B48FDF7BAFD594A01218D
:102670000320FFF7E1FB4AE06EA207210120FFF7EC
:10268000DBFB48480830FFF769FC009000F0CEFE05
:1026900080460022444B00F0EDFC04460D464148C4
:1026A0000830FFF75BFC8146644901F067F880461B
:1026B00000F0BCFE064622462B4600F0FFF982469B
:1026C00000F016F93B49086054493A48006801F0A7
:1026D00021F903D200203749086008E05049354805
:1026E000006801F017F902D84E48324908603148B5
:1026F000006800F09BFE044622460B4650A1354878
:10270000FDF76EFD334A01210320FFF795FB4F488B
:1027100000884EF6602188422CDB01204C4908706D
:10272000FFF752FA4BA205210220FFF785FB4FF479
:10273000FA60FFF70EF84AA205210220FFF77CFBA2
:1027400001210020FFF7ACFBFFF7A4FC0AA2052142
:102750000220FFF771FB4FF4FA60FEF7FAFF08A2C0
:1027600005210220FFF768FB4FF4FA70FEF7F1FF36
:1027700000207BE07CE0000052756E6E696E6700A1
:10278000202020202020200052616E67653A000042
:102790000000002044433A0001000020302E325651
:1027A000202020002800002000FEAF4066660A407E
:1027B0000000304020000020E9263108AC1CCA3F50
:1027C0009A9999999999C93F2ECA4C3E252E3566FA
:1027D000562000001E080020325620202020200015
:1027E00099990940B9FCFF3F252E346656202000F8
:1027F00041433A0096B24C3E3BDFFF3F252E336605
:10280000562020200000000052203A003230306F65
:10281000686D2000CDCCCCCCCCEC58400050C348E7
:102820000000484366E64743252E31666F686D20F9
:10283000000000003230306B6F686D000000C8424D
:10284000252E31666B6F686D0000000024000020AB
:1028500026000020536C656570696E6700000000FB
:1028600020202020202020200000000001490870A6
:1028700098E50000260000202DE9F04106460F46AD
:1028800000F004FC041E0D4618BF0120284320F070
:102890000040C0F17F6000F1E040C00F0ED0301C5E
:1028A00018BF0120384320F00040C0F17F6000F1E4
:1028B000E040C00F04BF0120FDF735FD204629464A
:1028C000BDE8F08110B500290AD00878002807D0AB
:1028D00005487844FEF78CF8002801D0002010BD90
:1028E0000248784410BD00003A1800003218000079
:1028F00021F00042A2F16052B2F5801F01F00043C6
:1029000028BFD2F17F6C0BD95FEA001C43EAC202F8
:1029100042EB507018BF704728BF20F0010070478D
:10292000B2F5801FBCBF184670474FEA410C1CF53A
:10293000001F02D2084600F0E8BF70B500F010FB9F
:1029400000000089FFF7F6BF4FF00040A0F58000BF
:102950007047000010B591EA030F48BF83F00043B1
:1029600000F18284841A71EB030C05D2121943EB37
:102970000C03001B61EB0C01DFF824E14FEA11545A
:10298000A4EB135C1EEA430F18BF9EEA445F73D0AA
:1029900023EA0E03DCF1200E21EA045143F48013F4
:1029A00032D322FA0CFE10EB0E0023FA0CFE41EBA0
:1029B0000E01CCF1200E03FA0EFE10EB0E0051F1C9
:1029C0000001B1F5801FCCF1200E32D201EB045191
:1029D00012FA0EF2BDE8104058BF7047401C38BFD5
:1029E0005FEA420218BF7047002814BF20F00100C0
:1029F00041F100014FEA410313F5001F38BF704752
:102A0000A1F1C04100F0FABA012A43EB0302ACF194
:102A1000200CDCF11F0E32BF4FF0000E23FA0CF336
:102A200010EB030041EB0451B4EB115FD0D0A1EBEC
:102A3000045101F5801149085FEA300001EB0451AF
:102A40000ED350F1000038BF12FA0EFE08D1BDE8D7
:102A50001040C9E7401C38BF5FEA4202CAD1C3E751
:102A6000BDE810404FEA410313F5001F38BF70471F
:102A7000A1F1C04100F0C2BA9EEA445F08D011EA59
:102A80005E0FBDE8104004BF01F000410020704718
:102A9000BDE8104070B500F063FA00BF64FBBE3EB5
:102AA0000000E0FF491058BFC1F140415B1058BF22
:102AB000C3F140438B42EFF3008070472DE9C041E2
:102AC00030B4DFF8A0C23CEA111418BF3CEA13147A
:102AD00000F0EC8081EA03051CEA111444EAD57485
:102AE00018BF1CEA131500F0C780A4EB05044FF0D3
:102AF000004545EAC12145EAC32341EA505143EA72
:102B0000525304F17F74994204F500344FEAC02017
:102B10004FEAC22208BF904200F09C804FEA136542
:102B20000FF24016765D4FEA134506FB05F7C7F135
:102B3000807706FB07F74FEAD737A7FB0368764293
:102B4000C8F58038A7FB06CE38BFA8F1010807FBFF
:102B500008E64FF0000EA6FB028CE6FB03CEDCF18C
:102B6000000CCEF1004E38BFAEF1010EA6FB0C58A2
:102B70004FF000074FF00005E6FB0E87A1FB08C6EB
:102B8000A0FB07CE16EB0E0645F10005E1FB07653D
:102B900015F1E04E7EBFA4F580345FEA46066D4134
:102BA00016F1800745F100054FEA17274FEA066640
:102BB00047EA0567A6F1DE46B6F1805F4FEA1525C4
:102BC0001FD9384624F0010C05EBC471BCF1FE6F2F
:102BD00001EB0C1102D8F0BCBDE8008124425CBFBF
:102BE00001F5801E9EEAC47F02D4F0BCBDE80081DE
:102BF000244238D4F0BCA1F1C041BDE8004100F04E
:102C0000FDB94FEAD22242EA43524FEAD323A7FB4F
:102C100002864FEAD02040EA415007FB03661EEAD5
:102C20000E0F4FEAD12105FB026658BFA6EB0056F6
:102C3000B6EB00564FEA520E4EEAC37E18EB0E0E6C
:102C400056EB530EBDD518EB02085E417F1C55F1C3
:102C50000005B6E74FF480154FF000074FF000066F
:102C60004FF00008ADE7F0BC4FF0000001F1C041AB
:102C700001F00041BDE8008111EA0C1F0CEA1315B8
:102C800000D00CE013EA0C1F00F025804FF000008C
:102C9000F0BC81EA030101F00041BDE80081F0BC15
:102CA000BDE8004181EA030100F0A8B9F0BCBDE82D
:102CB000004170B500F054F9097EFC3E00F007B801
:102CC00081EA03014FF0000001F00041704781EA02
:102CD000030100F093B9F0BCBDE800414FF00000E3
:102CE00021497047FFFDFBF9F7F5F4F2F0EEEDEB4B
:102CF000E9E8E6E4E3E1E0DEDDDBDAD8D7D5D4D3FA
:102D0000D1D0CFCDCCCBCAC8C7C6C5C4C2C1C0BF45
:102D1000BEBDBCBBBAB9B8B7B6B5B4B3B2B1B0AF4B
:102D2000AEADACABAAA9A8A8A7A6A5A4A3A3A2A12F
:102D3000A09F9F9E9D9C9C9B9A99999897979695EA
:102D400095949393929191908F8F8E8E8D8C8C8B86
:102D50008B8A89898888878786858584848383820E
:102D6000828181800000FF070000F87FB0FA80F3C5
:102D700010FA03F10AD0C3F11D0303F580634FEA93
:102D800041504FEA035202EBD12170474FF000004F
:102D90007047000051EA030C17D41CF5801F58BF80
:102DA000BCF5801F00F10680994218BF704708BF2C
:102DB0009042704707D711F5801F58BF13F5801F49
:102DC00019D499427047894270471CF5801F08D575
:102DD000BCF5801FF7D58B4218BF704708BF8242F1
:102DE00070474FF4001C1CEB410F38BF1CEB430F26
:102DF00001D28B42704770B500F0B2F892244900BE
:102E00004FF000514FF08053FFF74CBEDFF848C140
:102E100070B51CEA111E1EBF1CEA13159EEA0C0FAA
:102E200095EA0C0F00F06F8081EA030423EA4C134B
:102E30004EEAD47E21EA4C1141F4801143F4801310
:102E4000AE44A1FB024CA0FB0365AEF17F7E3619B8
:102E500055EB0C05A1FB034C4CF10003A0FB021C3D
:102E600016EB0C06654153F10003094218BF46F00A
:102E7000010613F4007F0BD14FEA03314FEA05300E
:102E8000340341EA155140EA16506FF003020AE09C
:102E90004FEAC3214FEAC520F40241EA555140EA06
:102EA00056506FF0020202EB2E4201EB025585EA0A
:102EB000CE710AD05FEA440C18BF24F0004450F1F0
:102EC000000041F1000120EAD47040F2FE7C62452E
:102ED00000D270BDA84214BF4FF080444FF0404470
:102EE000002E08BF0024BEF1806FA8BFA1F1C04131
:102EF000BDE8704080F282804FF0000001F1C041D7
:102F000001F0004170479EEA0C0F0CEA131518BF40
:102F100095EA0C0F06D04FF0000081EA030E0EF088
:102F2000004170BD00F01CF88900013E00F007B8B8
:102F300000F009B84FEA430C5FEA5C5C08D081EA14
:102F4000030100F05BB84FEA410C5FEA5C5CF6D12C
:102F50004FF00000014970470000FF070000F87FB4
:102F60000EF1020E2EF0030E5EF8046B364205D40D
:102F7000012A43EB030515F5001F12D8012841EB88
:102F8000010C1CF5001F0CD80ED14FEAD17C15F5B1
:102F9000001F0CEB4C0C0CF1020C08BF4CEBD37C6B
:102FA00004E04FF0080C01E04FEAD37C0CEB4C0539
:102FB00026FA05F606F00706B6F1040C06D20EEB6B
:102FC000860CBDE870404CF0010C6047DFE80CF067
:102FD000090B02024FF000414FF00000A1F5002163
:102FE00070BD19461046012851EB010418BFD4F5F5
:102FF000001484BF002001F0004170BD0808A0F556
:1030000000114FEA3101704753EA010C17D41CF547
:10301000801F58BFBCF5801F00F106808B4218BF8F
:10302000704708BF8242704707D713F5801F58BF0B
:1030300011F5801F19D48B4270479B4270471CF5D5
:10304000801F08D5BCF5801FF7D5994218BF70477F
:1030500008BF904270474FF4001C1CEB430F38BF71
:103060001CEB410F01D2994270470FB40CBC03BC5A
:10307000FFF7C1BE91EA030F10B581F000413FF5A3
:1030800071AC83F0004300F0EFB800002DE9F0418F
:1030900001F5801CBCF5001FC0F2C3804FEA115C33
:1030A00021EA0C510CF1FD0C41F480115FEA5C0C3B
:1030B0000CF5C07C01D3400049413DA4890241EA9E
:1030C000905187028E0E0A0CA45D04FB04F602FBED
:1030D00006F6C6F14046A4FB0662F60D46EA422615
:1030E00006FB06F4A4FB01235242C3F1404338BF60
:1030F0005B1EA6FB02420024E6FB0324D20B42EA3D
:103100004446A6FB0623A1FB02E2A3FB07E4A418A6
:103110004FF0000252F10002E3FB01426442C2F1AF
:10312000404E38BFAEF1010EA6FB04234FF0000263
:10313000E6FB0E32A2FB03464FF00004B61954F131
:103140000004E2FB0264A1FB06E6A4FB07E816EB21
:1031500008064FF0000858F10008E4FB01687642C9
:10316000C8F1405838BFA8F10108A2FB06E4A3FB50
:1031700008E52D194FF0000454F10004E2FB085457
:10318000A1FB05E6A7FB04E818EB06084FF00006D4
:1031900056F10006E1FB048618F1200556F1000601
:1031A000A809A8F11B08B10908F03F08B8F10A0FF7
:1031B00040EA86601CD901EB0C51BDE8F08100BFEC
:1031C000FCF5EEE8E2DDD8D3CFCBC7C3C0BDB9B6BE
:1031D000B4B1AEACA9A7A5A3A19F9D9B9A989695C3
:1031E0009392908F8D8C8B8988878685848382814A
:1031F000A0FB006800FB01F208EB4208B8EB87284F
:1032000007D5341858EB0104D5D5401C51F1000105
:10321000D1E7341A78EB0104CDD4401E71F10001DE
:10322000C9E75FEA4C0C5FEA9C5C0DD105D34FF017
:10323000000001F00041BDE8F081BDE8F04170B54B
:10324000FFF78EFE6DDBFFBEBDE8F0414FF00000E2
:10325000004970470000F87F10B591EA030F48BF9E
:1032600083F000433FF57EAB841A71EB030C07D269
:1032700012198CF0004C43EB0C03001B61EB0C01AA
:10328000DFF8A4E14FEA1154A4EB135C1EEA430FEC
:1032900018BF9EEA445F00F0B08023EA6E035242FA
:1032A00021EA0451C3EB6E0338BF5B1EDCF1200E34
:1032B00025D322FA0CFE10EB0E0043FA0CFE41EB74
:1032C0000E01CCF1200E03FA0EFE10EB0E0051F1B0
:1032D0000001CCF1200E29D412FA0EF201EB0451B8
:1032E000BDE8104058BF7047401C1CBFB2F1004FF2
:1032F000704700280CBF491C20F00100704712EBFA
:10330000020E43EB030218BF4FF0010E4EEA4202D9
:10331000ACF1200CDCF11E0E54D943FA0CFE10EB7C
:103320000E0051F1FF31CCF11E0ED5D50EF1010E7C
:1033300012FA0EFE404141EB010101EB445C5FEAF1
:103340005C5C10D910EBDE7001EB045138BFBEF1AC
:10335000004FBDE8104018BF704700280CBF491C43
:1033600020F00100704730D24FEAD42C11F5001143
:1033700024F400641BD0B1FA81F20B3AA41AA41E03
:10338000D2F12003914030FA03F31943904001EB4E
:10339000CC71002C01EB0451BDE81040A8BF704770
:1033A00001F1C0414FF0000001F000417047B0FA58
:1033B00080F310FA03F100D110BDE41A173C480560
:1033C000C90AE4E701EB045110BD491001EB0451B7
:1033D000BDE810404FEA300002E04FF000017047B6
:1033E0004A0008BF0042F8D0B2F5001F28BF70475E
:1033F00001F000414FF0000070479EEA445F07D0A3
:1034000011EA5E0FBDE8104004BF002100207047A4
:10341000BDE8104070B5FFF7A3FD00BF40DFF63EEA
:1034200083F00041104670470000E0FF43004FEA80
:10343000D30C4FEA3C0C43401FBF40070CF16051D6
:1034400013F0FE4F70471CF0006F03D100200CF00A
:10345000004170470CF0004343EA507010B540EA59
:10346000CC0000F00CFA00BF000000924FEA00010F
:10347000FFF7C4BD4FF000414FF00000A1F500215F
:103480007047000090EA010F48BF81F0004100F151
:103490007A82421A3CBF801A89184FEAD0524FF004
:1034A0007F4C1CEA410FA2EBD15318BF9CEA026F7C
:1034B00000F03B804FF0004C4CEA00204CEA012128
:1034C00021FA03FC10EB0C0C1ED202F1FF325FEA72
:1034D0001C2040EBC25038BF70471CF07F0F4FEAF2
:1034E000400C18BFBCF17F4F38BF7047C3F12003B9
:1034F000994008BF20F00100BCF17F4F38BF7047F2
:10350000A0F1C04000F001BA4FEA3C00000A40EBD5
:10351000C25028BF1CF0FF0F4FEA400CE6D018BF86
:10352000BCF17F4F38BF7047EAE79CEA026F05D0D5
:1035300010EA5C0F08BF00F00040704710B500F0C3
:103540009EF900BF64FBBE3E401058BFC0F1404032
:10355000491058BFC1F140418142EFF300807047EC
:103560004FF47F0C1CEAD0121EBF1CEAD11392EA62
:103570000C0F93EA0C0F00F0858090EA010F48BF12
:1035800042F4807240F4000C41F400002CF07F41C2
:1035900020F07F4000B58142A2EB03020FF2081C2D
:1035A000ACEB504EC0F100009EF800E04FEA4E0E2A
:1035B00000FB0EFC38BF49004FEA2C1C02F5FA0252
:1035C0000CFB0EF34FEACE1E4FEA112C4FEAC1213D
:1035D0000EEB635E42EB22420EFB0CFC4FEA1C53E7
:1035E00000FB03114FEA112C4FEA01310EFB0CFCDA
:1035F0004FEADC4C00FB0C11C14228BF09184CEB10
:1036000003335DF804EB10EB410143EBC250B2F51C
:103610007C0F38BF704729D512F0F00F1CBF00F1A6
:10362000C04000F000407047008182838485868717
:1036300088898B8C8D8E8F919293959697999A9C71
:103640009D9FA0A2A3A5A7A8AAACAEB0B2B3B5B7E0
:10365000B9BCBEC0C2C5C7C9CCCED1D4D7D9DCDFB6
:10366000E2E6E9ECF0F3F7FAFE0000004FEA400C66
:103670000CF1807CBCF17E4F28BF7047B0F1C04098
:1036800000F043B990EA010F0CEAD11348BF42F4AD
:103690008072624538BF634507D213F47F0F16D09E
:1036A00080EA010000F00040704710B500F0E7F834
:1036B000097EFC3E00F005B880EA010000F0004001
:1036C000704780EA010000F0004000F01EB912F4DB
:1036D0007F0F04BF0248704780EA010000F015B96F
:1036E0000000C07F10F0004148BF4042B0FA80F3B4
:1036F00010FA03F2C3F19D030BD051EAC35101EB61
:103700001220530638BF704700F1010008BF20F0B7
:103710000100704750EA010C00F113801CF5000F06
:1037200058BFBCF5000F01D48842704707D710F589
:10373000000F58BF11F5000F15D488427047894219
:1037400070471CF5000F04D5BCF5000FF7D581427A
:1037500070474FF0807C1CEB400F38BF1CEB410FD3
:1037600001D28142704710B500F089F892244900D7
:103770004FF000504FF08051FFF7E6BE4FF47F0C42
:103780001CEAD0121EBF1CEAD11392EA0C0F93EA76
:103790000C0F00F0478090EA010F48BF42F480729E
:1037A0004FF0004C4CEA00204CEA012102EB0302EE
:1037B000A0FB0113A2F50002002918BF43F001038A
:1037C0005B0028BF4FEA330342EB22425FEA132C2F
:1037D0004CEBC2502EBFBCEB436FB2F57C0F704771
:1037E0004FEA036CBCF1004F08BF20F00100B2F5B6
:1037F0007C0F38BF70470BD582F0FF0212F5803F77
:10380000C8BF704700F1C040D8BF00F0004070470B
:1038100000F5000C5FEA4C0C48BF7047B0F1C040A7
:1038200000F073B890EA010F0CEAD11348BF42F4DC
:103830008072624538BF634504D280EA010000F01F
:103840000040704710B500F01AF800BF8900013E33
:1038500000F007B800F009B85FEA410C5FEA1C6CA1
:1038600008D080EA010000F050B85FEA400C5FEA3F
:103870001C6CF6D14FF00040A0F5800070470EF1AF
:10388000020E2EF0030E5EF8044B244204D44FEADD
:103890004102B2F17F4F11D84FEA4003B3F17F4F9D
:1038A0000CD80ED14FEAD07CB2F17F4F0CEB4C0C10
:1038B0000CF1020C08BF4CEBD17C04E04FF0080C7B
:1038C00001E04FEAD17C0CEB4C0324FA03F404F042
:1038D0000704B4F1040C06D20EEB840CBDE81040D2
:1038E0004CF0010C6047DFE80CF0070802024FF0D3
:1038F0000040A0F5800010BD0846420018BFD2F17C
:10390000807288BF00F0004010BDFF2141EAD05016
:10391000C005704751EA000C00F113801CF5000F40
:1039200058BFBCF5000F01D48142704707D711F58D
:10393000000F58BF10F5000F15D48142704789421F
:1039400070471CF5000F04D5BCF5000FF7D5884271
:1039500070474FF0807C1CEB410F38BF1CEB400FD1
:1039600001D28842704780EA010081EA000180EAC2
:103970000100FFF7F8BE000090EA010F48BF81F098
:1039800000413FF586AD421A04D882F00042A0EB18
:10399000020011444FEAD0524FF07F4C1CEA410F15
:1039A000A2EBD15318BF9CEA026F4AD04FF0004CF3
:1039B0004CEA00204CEA012121FA03FCB0EB0C0C8C
:1039C0000FD412F0FE0F36D05FEA4C001DD5001266
:1039D00040EBC25038BF70471CF03F0F18BF704714
:1039E0000BE0A2F101025FEA1C2040EBC25038BF9D
:1039F00070471CF07F0F18BF7047C3F12003994038
:103A000014BF401E20F00100704780084FEA1223C7
:103A100008BF7047B0FA80FCA2EB0C02CCF1280C76
:103A200060FA0CF093EA122F04BF00EBC25070470B
:103A30004FEAC3707047130A5FEADC1008BF704793
:103A4000F6E79CEA026F04D010EA5C0F08BF002082
:103A5000704710B5FFF713FF40DFF63E81F00040DE
:103A60007047FCF73FBD00000000000000000000B0
:103A7000000000000000000000F80000000000004E
:103A800000333000000000100C06100C060000008F
:103A900000000000000040C07840C0784000043FB3
:103AA00004043F040400007088FC08300000001883
:103AB00020FF211E0000F008F000E01800000021A7
:103AC0001C031E211E0000F00888700000001E214B
:103AD00023241927211010160E00000000000000FA
:103AE000000000000000000000E0180402000000D8
:103AF00000071820400000020418E0000000004009
:103B0000201807000000404080F080404000020282
:103B1000010F01020200000000F00000000001019E
:103B2000011F01010100000000000000000080B042
:103B30007000000000000000000000000000000114
:103B4000010101010101000000000000000000303F
:103B500030000000000000000000806018040060D9
:103B600018060100000000E010080810E000000F37
:103B7000102020100F00001010F80000000000209E
:103B8000203F2020000000700808088870000030E6
:103B9000282422213000003008888848300000188E
:103BA000202020110E000000C02010F800000007A7
:103BB0000424243F240000F808888808080000191D
:103BC000212020110E0000E0108888180000000F4E
:103BD000112020110E0000380808C8380800000025
:103BE000003F000000000070880808887000001C7A
:103BF000222121221C0000E010080810E000000033
:103C0000312222110F00000000C0C000000000009F
:103C100000303000000000000080000000000000C4
:103C200080600000000000008040201008000001BB
:103C3000020408102000404040404040400004047E
:103C40000404040404000008102040800000002048
:103C5000100804020100007048080808F000000085
:103C6000003036010000C030C828E810E000071816
:103C7000272423140B000000C038E0000000203C83
:103C800023020227382008F8888888700000203F27
:103C9000202020110E00C03008080808380007183E
:103CA00020202010080008F808080810E000203F35
:103CB000202020100F0008F88888E8081000203F16
:103CC00020202320180008F88888E8081000203FEA
:103CD000200003000000C030080808380000071862
:103CE0002020221E020008F808000008F808203FE3
:103CF000210101213F20000808F8080800000020E9
:103D0000203F2020000000000808F8080800C080BC
:103D100080807F00000008F888C028180800203F35
:103D200020012638200008F8080000000000203F8D
:103D300020202020300008F8F800F8F80800203F84
:103D4000003F003F200008F830C00008F808203F7E
:103D5000200007183F00E01008080810E0000F10CE
:103D6000202020100F0008F808080808F000203F65
:103D7000210101010000E01008080810E0000F1800
:103D8000242438504F0008F8888888887000203F25
:103D90002000030C30200070880808083800003824
:103DA000202121221C00180808F80808180000002B
:103DB000203F2000000008F808000008F808001F55
:103DC000202020201F000878880000C83808000044
:103DD00007380E010000F80800F80008F800033C5E
:103DE0000700073C03000818688080681808203026
:103DF0002C03032C30200838C800C8380800000005
:103E0000203F2000000010080808C83808002038AB
:103E1000262120201800000000FE020202000000FF
:103E2000007F40404000000C30C000000000000057
:103E300000010638C00000020202FE00000000403F
:103E400040407F0000000000040202020400000065
:103E50000000000000000000000000000000808062
:103E6000808080808080000202040000000000004A
:103E70000000000000000000808080800000001929
:103E8000242222223F2008F8008080000000003F0A
:103E9000112020110E000000008080800000000E24
:103EA000112020201100000000808088F800000E02
:103EB000112020103F200000808080800000001F23
:103EC000222222221300008080F088888818002097
:103ED000203F202000000000808080808000006B58
:103EE00094949493600008F8008080800000203F44
:103EF000210000203F200080989800000000002052
:103F0000203F20200000000000809898000000C0A2
:103F10008080807F000008F8000080808000203FC3
:103F200024022D302000000808F8000000000020C6
:103F3000203F202000008080808080808000203F03
:103F400020003F20003F8080008080800000203FD4
:103F5000210000203F200000808080800000001FA2
:103F6000202020201F00808000808000000080FF33
:103F7000A12020110E000000008080808000000E33
:103F8000112020A0FF808080800080808000202081
:103F90003F212000010000008080808080000033ED
:103FA000242424241900008080E080800000000088
:103FB000001F202000008080000000808000001F83
:103FC000202020103F208080800000808080000121
:103FD0000E300806010080800080008080800F3055
:103FE0000C030C300F0000808000808080000020D7
:103FF000312E0E3120008080800000808080808102
:104000008E70180601000080808080808000002172
:10401000302C2221300000000000807C02020000D1
:104020000000003F404000000000FF0000000000D2
:104030000000FF0000000002027C80000000004041
:10404000403F0000000000060101020204040000DD
:10405000000000000000000002400000000000A07E
:104060000000000005400000000000C80000000043
:104070000C4000000000409C0000000019400000BF
:104080000020BCBE0000000034400000BFC91B8EF1
:1040900000000004B5400000504BCFD06607E2CFCF
:1040A000010000006C4100003E8251AADFEEA734FF
:1040B00001000000D9420000DCB5A0E23A301F97B1
:1040C000FFFFFFFFB4450000FD25A0C8E9A3C14FD5
:1040D000FFFFFFFFFF3F0000000000800000000026
:1040E000FF3F0000000000800000000028410008A1
:1040F00000000020280000002801000850410008AE
:1041000028000020600E0000440100081C00000090
:1041100043000000F8FFFFFF0C0000000E0000004D
:104120000F0000002E000000000000000000000052
:10413000000000000000000000000000000000007F
:10414000000000000000000000000000000000006F
:04000005080000ED02
:00000001FF
